:100000000C9435000C945D000C945D000C945D0024
:100010000C945D000C945D000C945D000C945D00EC
:100020000C945D000C945D000C945D000C945D00DC
:100030000C945D000C945D000C945D000C945D00CC
:100040000C9481000C945D000C9480010C94CE0102
:100050000C945D000C945D000C945D000C945D00AC
:100060000C945D000C945D003A0311241FBECFEF89
:10007000D8E0DEBFCDBF11E0A0E0B1E0E0E7FAE0FC
:1000800002C005900D92A231B107D9F711E0A2E1AB
:10009000B1E001C01D92A53CB107E1F710E0CAE64E
:1000A000D0E004C02297FE010E943205C836D10775
:1000B000C9F70E9490030C9436050C94000080E070
:1000C0000E945D01BC016350704083E89AE10E9488
:1000D000E7046450704083EA91E04AE050E00E94F7
:1000E000A90464EF71E080E090E00E94C9000895E7
:1000F00083EA91E040E855E260E070E00E94090286
:1001000008951F920F920FB60F9211242F933F93D1
:100110008F939F93AF93BF93809116019091170196
:10012000A0911801B091190130911A010196A11DF9
:10013000B11D232F2D5F2D3720F02D570196A11DC6
:10014000B11D20931A018093160190931701A0937B
:100150001801B09319018091120190911301A0919F
:100160001401B09115010196A11DB11D80931201DA
:1001700090931301A0931401B0931501BF91AF9117
:100180009F918F913F912F910F900FBE0F901F90D5
:1001900018959B01AC017FB7F89480911201909162
:1001A0001301A0911401B091150166B5A89B05C07B
:1001B0006F3F19F00196A11DB11D7FBFBA2FA92F66
:1001C000982F8827860F911DA11DB11D62E0880F11
:1001D000991FAA1FBB1F6A95D1F7BC012DC0FFB79D
:1001E000F8948091120190911301A0911401B091A3
:1001F0001501E6B5A89B05C0EF3F19F00196A11DBA
:10020000B11DFFBFBA2FA92F982F88278E0F911DE0
:10021000A11DB11DE2E0880F991FAA1FBB1FEA951F
:10022000D1F7861B970B885E9340C8F2215030406F
:100230004040504068517C4F211531054105510522
:1002400071F60895789484B5826084BD84B5816028
:1002500084BD85B5826085BD85B5816085BDEEE6CE
:10026000F0E0808181608083E1E8F0E010828081AD
:1002700082608083808181608083E0E8F0E080811B
:1002800081608083E1EBF0E0808184608083E0EB3B
:10029000F0E0808181608083EAE7F0E08081846023
:1002A000808380818260808380818160808380817F
:1002B000806880831092C1000895982F8E3008F0D6
:1002C0009E509770809100018295880F880F807CE6
:1002D000892B80937C0080917A00806480937A00DF
:1002E00080917A0086FDFCCF2091780040917900C2
:1002F000942F80E030E0282B392BC9010895089510
:100300001F920F920FB60F9211242F933F934F938A
:100310008F939F93EF93FF938091C00082FD1DC048
:100320004091C60020915B0130915C012F5F3F4FEF
:100330002F73307080915D0190915E01281739070D
:1003400071F0E0915B01F0915C01E55EFE4F40834E
:1003500030935C0120935B0102C08091C600FF9145
:10036000EF919F918F914F913F912F910F900FBEE1
:100370000F901F901895E091AF01F091B001E05CF3
:10038000FF4F8191919120813181821B930B8F735B
:100390009070892B11F00E947F0108951F920F9297
:1003A0000FB60F9211242F933F938F939F93EF9348
:1003B000FF9320919F013091A0018091A101909124
:1003C000A2012817390731F48091C1008F7D8093F5
:1003D000C10014C0E091A101F091A201E15AFE4FC9
:1003E00020818091A1019091A20101968F7390705C
:1003F0009093A2018093A1012093C600FF91EF91F9
:100400009F918F913F912F910F900FBE0F901F9052
:100410001895AF92BF92DF92EF92FF920F931F93C6
:10042000CF93DF93EC017A018B01DD24403081EE24
:10043000580780E0680780E0780711F0DD24D39446
:1004400091E0A92EB12CEC89FD89DD2069F0C50170
:1004500008A002C0880F991F0A94E2F7808360E029
:1004600079E08DE390E005C0108260E874E88EE1E9
:1004700090E0A80197010E94FA04215030404040CA
:100480005040569547953795279580E1203038079D
:1004900020F0DD2011F0DD24D6CFE889F989308302
:1004A000EA89FB89208319A2EE89FF89408121E036
:1004B00030E0C9010C8C02C0880F991F0A94E2F742
:1004C000482B4083EE89FF894081C9010D8C02C011
:1004D000880F991F0A94E2F7482B4083EE89FF8921
:1004E0004081C9010E8C02C0880F991F0A94E2F75F
:1004F000482B4083EE89FF8980810F8C02C0220F38
:10050000331F0A94E2F7209528232083DF91CF91AF
:100510001F910F91FF90EF90DF90BF90AF900895E3
:10052000DC011C96ED91FC911D97E05CFF4F219141
:10053000319180819181281B390B2F733070C90153
:100540000895DC011C96ED91FC911D97E05CFF4F36
:1005500020813181E054F040DF01AE5BBF4F8D91CF
:100560009C9111972817390719F42FEF3FEF07C017
:100570008D919C91E80FF91F8081282F30E0C901EF
:100580000895DC011C96ED91FC911D97E05CFF4FF6
:1005900020813181E054F040DF01AE5BBF4F8D918F
:1005A0009C9111972817390719F42FEF3FEF10C0CE
:1005B0008D919C911197E80FF91F20818D919C914D
:1005C000119701968F73907011969C938E9330E0E3
:1005D000C9010895DC0191968C919197882339F097
:1005E0005496ED91FC915597808186FFF9CF9196B5
:1005F0001C920895CF93DF93EC01EE85FF85E05CBC
:10060000FF4F20813181E054F0402F5F3F4F2F7327
:100610003070DF01AE5BBF4F8D919C911197281711
:100620003907D1F3E05CFF4F80819181E054F040C5
:10063000E80FF91F6083EE85FF85E05CFF4F318393
:100640002083EE89FF89208181E090E00F8C02C039
:10065000880F991F0A94E2F7282B208381E089A351
:10066000EC89FD8980818064808381E090E0DF9166
:10067000CF9108951092A6011092A50188EE93E003
:10068000A0E0B0E08093A7019093A801A093A901F6
:10069000B093AA0185E091E09093A4018093A30117
:1006A0008BE191E09093B0018093AF018FE591E0F1
:1006B0009093B2018093B10185EC90E09093B401E6
:1006C0008093B30184EC90E09093B6018093B501E0
:1006D00080EC90E09093B8018093B70181EC90E0BA
:1006E0009093BA018093B90182EC90E09093BC01A1
:1006F0008093BB0186EC90E09093BE018093BD0196
:1007000084E08093BF0183E08093C00187E0809301
:10071000C10185E08093C20181E08093C301089507
:10072000CF93DF930E9422010E947800CBEBD1E0AF
:100730000E945F002097E1F30E94BB01F9CFCF92A6
:10074000DF92EF92FF920F931F93CF93DF937C0181
:100750006B018A01C0E0D0E00FC0D6016D916D0140
:10076000D701ED91FC910190F081E02DC701099531
:10077000C80FD91F015010400115110571F7CE01A6
:10078000DF91CF911F910F91FF90EF90DF90CF906D
:100790000895EF92FF920F931F938C01DC01ED916E
:1007A000FC910190F081E02D6DE009957C01D8016C
:1007B000ED91FC910190F081E02DC8016AE009956E
:1007C0009C012E0D3F1DC9011F910F91FF90EF90CD
:1007D0000895CF93DF93EC016115710519F420E0C2
:1007E00030E00FC0DB010D900020E9F71197A61B48
:1007F000B70BE881F9810280F381E02DAD01099505
:100800009C01C901DF91CF9108954F925F927F9231
:100810008F929F92AF92BF92CF92DF92EF92FF9210
:100820000F931F93DF93CF93CDB7DEB7A1970FB68A
:10083000F894DEBF0FBECDBF2C01742ECB01223049
:1008400008F42AE019A231E2C32ED12CCC0EDD1E11
:10085000822E9924AA24BB24672D752FA50194010B
:100860000E94FA0479018A01C801B701A501940127
:100870000E94C804472D461B0894C108D1084A307D
:1008800014F4405D01C0495CF6014083E114F104B9
:100890000105110521F07E2C5F2DC801DDCFC201BD
:1008A000B6010E94E903A1960FB6F894DEBF0FBE11
:1008B000CDBFCF91DF911F910F91FF90EF90DF900F
:1008C000CF90BF90AF909F908F907F905F904F9010
:1008D0000895CF92DF92EF92FF920F931F93CF93E1
:1008E000DF93EC016A017B012115310541F4E881B8
:1008F000F9810190F081E02D642F09951FC02A3005
:100900003105D1F477FF17C0E881F9810190F081BA
:10091000E02D6DE209958C0144275527BA014C1949
:100920005D096E097F09CE012AE00E940504980145
:10093000280F391F04C02AE00E9405049C01C90148
:10094000DF91CF911F910F91FF90EF90DF90CF90AB
:100950000895CF92DF92EF92FF920F931F936C0155
:100960007B019A010027F7FC0095102FB801A70121
:100970000E9469048C01C6010E94C903080F191F57
:10098000C8011F910F91FF90EF90DF90CF900895D5
:10099000629FD001739FF001829FE00DF11D649F63
:1009A000E00DF11D929FF00D839FF00D749FF00DEF
:1009B000659FF00D9927729FB00DE11DF91F639F90
:1009C000B00DE11DF91FBD01CF011124089597FB62
:1009D000092E07260AD077FD04D02ED006D000209D
:1009E0001AF4709561957F4F0895F6F7909581956B
:1009F0009F4F0895A1E21A2EAA1BBB1BFD010DC03B
:100A0000AA1FBB1FEE1FFF1FA217B307E407F507BE
:100A100020F0A21BB30BE40BF50B661F771F881F9A
:100A2000991F1A9469F760957095809590959B0130
:100A3000AC01BD01CF010895AA1BBB1B51E107C04A
:100A4000AA1FBB1FA617B70710F0A61BB70B881F5E
:100A5000991F5A95A9F780959095BC01CD010895ED
:100A6000EE0FFF1F0590F491E02D0994F894FFCF4D
:100A70000100000000FA029F039002C102A102EAF5
:020A8000020072
:00000001FF
